:020000040800F2
:10000000B04F0020850200089D42000855340008CA
:100010000D3F0008E5030008814E000800000000C5
:10002000000000000000000000000000C501000802
:100030004B060008000000002102000845430008AC
:100040009F0200089F0200089F0200089F0200080C
:100050009F0200089F0200089F0200089F020008FC
:100060009F0200089F0200089F0200080105000887
:10007000110500089F0200089F0200089F02000867
:100080009F020008210500089F020008F9030008EC
:10009000E90300089F0200089F0200089F02000871
:1000A0009F0200089F0200089F0200089F020008AC
:1000B0009F0200089F0200089F0200089F0200089C
:1000C0009F0200089F0200089F0200089F0200088C
:1000D0009F0200089F0200089F0200089F0200087C
:1000E0009F0200089F0200089F0200089F0200086C
:1000F0009F0200089F0200089F0200089F0200085C
:100100009F0200089F0200089F0200089F0200084B
:100110009F0200089F0200089D4400089F020008FB
:100120009F020008310500089F0200089F02000896
:100130009F0200089F0200089F020008190400089F
:100140009F020008090400089F0200089F0200089F
:100150009F0200089F0200089F0200089F020008FB
:100160009F0200089F0200089F0200089F020008EB
:100170009F0200089F0200089F0200080000000084
:100180009F0200089F02000871470008814700088D
:100190009F0200089F0200089F0200089F020008BB
:1001A00000000000000000009F020008DFF810D0EF
:1001B00000F006F9004800474D500008AFF30080FA
:1001C000B04F00202C4B19680868B0E8F04F80F35E
:1001D0000988BFF36F8F4FF0000080F311887047DC
:1001E0000000000008480068006880F308884FF0AD
:1001F000000080F3148862B661B6BFF34F8FBFF37F
:100200006F8F00DF00BF00BF08ED00E0DFF80C00DB
:10021000016841F470010160704700BF88ED00E0A3
:10022000EFF30980BFF36F8F134B1A681EF0100FA6
:1002300008BF20ED108A20E9F04F106009B44FF09C
:10024000500080F31188BFF34F8FBFF36F8F05F01D
:100250001DFC4FF0000080F3118809BC1968086884
:10026000B0E8F04F1EF0100F08BFB0EC108A80F31A
:100270000988BFF36F8F704750000020EFF30580AF
:10028000704700000648804706480047FEE7FEE743
:10029000FEE7FEE7FEE7FEE7FEE7FEE7FEE7FEE736
:1002A0002D440008AD0100082DE9F05F054600204F
:1002B00092469B4688460646814640241BE02846D7
:1002C00041464746224600F06AF853465A46C01A4D
:1002D000914110D311461846224600F051F82D1ACC
:1002E00067EB01084F4622460120002100F048F844
:1002F00017EB00094E41201EA4F10104DFDC484643
:1003000031462A464346BDE8F09F002800DA4042C5
:10031000704740EA01039B0703D009E008C9121F98
:1003200008C0042AFAD203E011F8013B00F8013BAF
:10033000521EF9D27047D2B201E000F8012B491EDB
:10034000FBD270470022F6E710B513460A46044672
:100350001946FFF7F0FF204610BD00F0004230F0D4
:1003600000400AD0C10D01F56071C0F3160042EAE9
:100370000151C208400711437047002001467047F1
:10038000202A04DB203A00FA02F100207047914055
:10039000C2F1200320FA03F3194390407047202A4A
:1003A00004DB203A21FA02F00021704721FA02F31F
:1003B000D040C2F120029140084319467047000026
:1003C000064C074D06E0E06840F0010394E80700A2
:1003D00098471034AC42F6D3FFF7ECFE00640008F7
:1003E0002064000800BFFEE710B5024800F0CAFB19
:1003F00010BD00002403002010B5024800F0C2FB2D
:1004000010BD00002403002010B5024800F0BAFB24
:1004100010BD00004C03002010B5024800F0B2FBF4
:1004200010BD00004C030020B0EE402AF0EE602A20
:1004300032EE620AF0EE400A90ED010A20EE200A48
:10044000B0EE404A90ED020A20EE200AF0EE404A5B
:1004500090ED070A30EE240AF0EE401A90ED0C0AF7
:10046000B4EEE10AF1EE10FA04D290ED0C0A80ED40
:10047000070A15E090ED0C0ABFEE005A20EE050ABF
:10048000B4EEE10AF1EE10FA08DD90ED0C0ABFEED1
:10049000005A20EE050A80ED070A01E0C0ED071AB8
:1004A00090ED050A70EEC03A90ED030A20EE233A73
:1004B000C0ED050A90ED070A30EE040A30EE031A8B
:1004C00090ED0B0AB4EEC10AF1EE10FA02D890EDED
:1004D0000B0A704790ED0B0ABFEE005A20EE050A9A
:1004E000B4EEC10AF1EE10FA06DD90ED0B0ABFEE94
:1004F000005A20EE050AECE7B0EE410AE9E70000F9
:1005000010B5024800F098FF10BD0000340700202D
:1005100010B5024800F090FF10BD000074060020E6
:1005200010B5024800F088FF10BD0000D40600207E
:1005300010B5024800F080FF10BD000094070020B5
:100540000146087810381823B0FBF3F20848805CA5
:10055000C865032A05D908686FF30900001D88657E
:1005600003E008686FF309008865886D7047000034
:1005700098630008014600208A6A8B69CBB932B1C2
:10058000012A0DD0022A03D0032A10D10EE000BFA9
:10059000CB6A03F08073B3F1807F00D1012007E0C4
:1005A000CB6AB3F1C07F00D1012001E000E000BFC1
:1005B00034E08B69B3F5005F1AD132B1012A07D05C
:1005C000022A03D0032A11D10AE000BF01200EE065
:1005D000CB6A03F08073B3F1807F00D1012006E085
:1005E000CB6AB3F1C07F00D1012000E000BF15E06D
:1005F00032B1012A05D0022A04D0032A0CD103E02B
:1006000000BF00BF012008E0CB6A03F08073B3F1A4
:10061000807F00D1012000E000BF00BF704730B5EF
:100620000468246824F4802405682C6004686360EE
:100630008468402C04D10468A2600468E16003E08F
:100640000468A1600468E26030BD704772B600BF04
:10065000FEE700000FB49DED050ADDED040A30EE63
:10066000600ABDEEC00A10EE100A002801DD014646
:1006700000E04142B1F57A6F08DD011E01DB0A4658
:1006800000E04A4290FBF2F2A0EB423000EE100A8A
:10069000B8EEC00ADFED060A20EE200A9FED051A2B
:1006A000C0EE010A9FED041A80EE810A04B0704783
:1006B0000000B44300001042000000460FB49DED5E
:1006C000050ADDED040A30EE600ABDEEC00A10EE48
:1006D000100A002801DD014600E04142B1F57A6FC1
:1006E00008DD011E01DB0A4600E04A4290FBF2F2FF
:1006F000A0EB423000EE100AB8EEC00ADFED060AA9
:1007000020EE200AB3EE031AC0EE010A9FED031A91
:1007100080EE810A04B070470000B4430000004638
:1007200010B5024692F82030012B01D0022B06D1E1
:1007300010684069084314686061002010BD506A69
:1007400040F4802050620120F8E7F0B504460D46E1
:100750001E4694F8207020688368A86800B900E0FD
:1007600000BF012F01D0022F7DD103F0806030B98E
:1007700003F0006018B903F0805000287ED0C3F366
:100780000161012088403060A86860B9B5F800C0F8
:10079000E86840EA4C5C206800F5C07000EB01108E
:1007A000C0F800C00FE0D5E901C040EACC00D5F8A0
:1007B0000CC040EA0C00D4F800C00CF5C07C0CEB77
:1007C000011CCCF80000D5F810C0206800F5C070FE
:1007D00000EB0110C0F804C0287D01280ED120686C
:1007E00000F5C07000EB0110406840F4807C206888
:1007F00000F5C07000EB0110C0F804C0D07900060D
:1008000092F806C040EA0C4092F805C040EA0C207D
:1008100092F804C040EA0C00D4F800C00CF5C07C8B
:100820000CEB011CCCF80C00D078000692F802C04A
:1008300040EA0C4092F801C040EA0C2092F800C057
:1008400040EA0C00D4F800C00CF5C07C0CEB011C95
:10085000CCF80800206800F5C07000EB01100068BB
:1008600040F0010C01E00FE008E0206800F5C070E6
:1008700000EB0110C0F800C00020F0BD606A40F439
:10088000001060620120F8E7606A40F48020606236
:100890000120F2E7F0B504460A46216894F820509A
:1008A000012D01D0022D7ED1424901F50071086869
:1008B00040F001000860086820F47C500860086877
:1008C000566A40EA06200860107D00F01F060120ED
:1008D00000FA06F3C8699843C861A1F50071D069B0
:1008E000C8B9D1F80C029843C1F80C02908880B2C4
:1008F000968940EA064601F51070576940F837605E
:10090000108880B2168940EA064601F510705769D2
:1009100000EBC7004660D069012819D1D1F80C025C
:100920001843C1F80C02908880B2168840EA064647
:1009300001F51070576940F83760908980B21689C8
:1009400040EA064601F51070576900EBC7004660A3
:10095000906928B9D1F804029843C1F8040204E070
:10096000D1F804021843C1F80402106928B9D1F87B
:1009700014029843C1F8140204E0D1F81402184399
:10098000C1F81402106A012804D1D1F81C021843DE
:10099000C1F81C02D1F8000220F00100C1F80002E9
:1009A0000020F0BDFFE7606A40F480206062012013
:1009B000F7E7000000640040704770B5044694F803
:1009C0002050012D01D0022D7DD151B92068C06881
:1009D00000F0030080B9606A40F4001060620120FA
:1009E00070BD2068006900F0030028B9606A40F417
:1009F000001060620120F3E7206800F5D87000EB7A
:100A00000110006800F004009060906840B9206810
:100A100000F5D87000EB01100068400D106007E091
:100A2000206800F5D87000EB01100068C008506025
:100A3000206800F5D87000EB0110006800F002009B
:100A4000D060206800F5D87000EB0110406800F01D
:100A50000F00082802D30820106108E0206800F584
:100A6000D87000EB0110406800F00F0010612068A2
:100A700000F5D87000EB0110406800F47F40000AD8
:100A80009061206800F5D87000EB01104068000C00
:100A90005061206800F5D87000EB01108068187074
:100AA000206800F5D87000EB0110806800F47F40EA
:100AB000000A5870206800F5D87000EB01108068BB
:100AC00000F47F0000E03CE0000C9870206800F526
:100AD000D87000EB01108068000ED870206800F517
:100AE000D87000EB0110C0681871206800F5D8704C
:100AF00000EB0110C06800F47F40000A58712068C4
:100B000000F5D87000EB0110C06800F47F00000C05
:100B10009871206800F5D87000EB0110C068000ED5
:100B2000D87131B92068C06840F020002668F060B4
:100B300005E02068006940F0200026683061002050
:100B40004EE7606A40F480206062012048E7014679
:100B5000002091F82020012A01D0022A11D10B682F
:100B60009B6803F0806303B1401C0B689B6803F033
:100B7000006303B1401C0B689B6803F0805303B112
:100B8000401C70472DE9F05F044600252068466947
:100B90002068D0F80490206887682068D0F80CA0FE
:100BA0002068D0F810B02068D0F8188006F0010056
:100BB000002855D007F00100C0B1012021688860ED
:100BC00007F0020018B1204600F0C5FB0EE007F068
:100BD000040010B145F4006508E007F0080010B10A
:100BE00045F4805502E0204600F0B4FB07F4807025
:100BF000C8B14FF480702168886007F4007018B1A4
:100C0000204600F0AAFB0EE007F4806010B145F426
:100C1000005508E007F4006010B145F4804502E09B
:100C2000204600F099FB07F48030C8B14FF48030C3
:100C30002168886007F4003018B1204600F08FFB6F
:100C40000EE007F4802010B145F4004508E007F4F9
:100C5000002010B145F4803502E0204600F07EFB14
:100C600006F0080038B10AF0100020B145F4007514
:100C700010202168C86006F0040040B10AF00800A6
:100C800028B108202168C860204600F01FFA06F04D
:100C9000020038B12068C06800F0030010B120469F
:100CA00000F016FA06F0400038B10BF0100020B149
:100CB00045F4806510202168086106F0200040B1ED
:100CC0000BF0080028B1082021680861204600F0D8
:100CD000ABFA06F0100038B12068006900F003009C
:100CE00010B1204600F0A2FA06F4003040B109F03D
:100CF000100028B1102021684860204600F0FAFA60
:100D000006F4803040B109F0080028B108202168BD
:100D10004860204600F024FB06F4004088B309F048
:100D2000040078B306F4807020B108F0010008B127
:100D300045F0010506F4007020B108F0020008B18A
:100D400045F0020506F4806020B108F0040008B107
:100D500045F0040506F40060A0B108F0700088B109
:100D600008F07000402817D006DC10280BD020288F
:100D70000CD0302819D10CE0502810D0602814D1A4
:100D800010E01DE019E045F008050FE045F0100502
:100D90000CE045F0200509E045F0400506E045F08F
:100DA000800503E045F4807500E000BF00BF2068C7
:100DB000806920F070002168886104202168486003
:100DC0002DB1606A284360622046FFF7F5FDBDE85B
:100DD000F09F70B504460CB9012070BD94F8200056
:100DE00010B9204600F0B0F82068006840F001001B
:100DF0002168086000F022FE05460DE000F01EFEAE
:100E0000401B0A2808D9606A40F40030606205205F
:100E100084F820000120E0E72068406800F001002D
:100E20000028EBD02068006820F0020021680860EC
:100E300000F004FE05460DE000F000FE401B0A280D
:100E400008D9606A40F400306062052084F8200010
:100E50000120C2E72068406800F002000028EBD1C2
:100E6000207E012806D12068006840F080002168BB
:100E7000086005E02068006820F0800021680860B4
:100E8000607E012806D12068006840F0400021689B
:100E9000086005E02068006820F0400021680860D4
:100EA000A07E012806D12068006840F0200021685B
:100EB000086005E02068006820F0200021680860D4
:100EC000E07E012806D12068006820F0100021682B
:100ED000086005E02068006840F0100021680860A4
:100EE000207F012806D12068006840F008002168B2
:100EF000086005E02068006820F0080021680860AC
:100F0000607F012806D12068006840F00400216855
:100F1000086005E02068006820F00400216808608F
:100F2000D4E9020108432169084361690843616803
:100F3000491E08432168C86100206062012084F8CE
:100F40002000002049E7000010B586B004461421B7
:100F500001A8FFF7F7F957492068884249D1564858
:100F60000068401C544908600846006801280FD1F9
:100F700000BF002000905148006840F000704F49C9
:100F800008600846006800F00070009000BF00BFD5
:100F900000BF0020009049481038006840F0080069
:100FA0004649103908600846006800F008000090C3
:100FB00000BF00BF03200190022002900020039098
:100FC000032004900920059001A93D4800F028FC69
:100FD00000220321132000F0F9FD132000F0E2FDB0
:100FE00000220121142000F0F1FD142000F0DAFDB0
:100FF0005DE034492068884259D100BF002000904C
:101000002E48006840F080602C490860084600685F
:1010100000F08060009000BF00BF27480068401CBF
:10102000254908600846006801280FD100BF00204C
:1010300000902248006840F000702049086008468F
:10104000006800F00070009000BF00BF00BF0020EB
:1010500000901A481038006840F002001749103913
:1010600008600846006800F00200009000BF00BF62
:101070004FF4405001900220029000200390032082
:1010800004900920059001A90F4800F0C9FB002237
:1010900003213F2000F09AFD3F2000F083FD002255
:1010A0000121412000F092FD412000F07BFD06B0BF
:1010B00010BD0000006400403800002040380240AD
:1010C000000C02400068004000040240704700002D
:1010D00010B592B0044609AB0BAA00212046FFF7D9
:1010E0006CFC002870D10D98042805D109A90BA823
:1010F00004F03CFD12B010BD0B98A0F2012030B1FD
:10110000012823D0022840D003287ED15DE009A920
:10111000404803F059FF3F4890ED030AF3EE030AFD
:1011200080EE201A80ED031A242200F11001684697
:10113000FFF7EFF837480FC8FFF7C0FA3548D0ED92
:10114000010A30EE200A80ED010A5FE009A9324869
:1011500003F03AFF304890ED030AF3EE030A80EE05
:10116000201A80ED031A242200F110016846FFF7CF
:10117000D0F829480FC8FFF7A1FA2748D0ED010A97
:1011800030EE200A80ED010A40E009A9234803F06F
:101190001BFF224890ED030ADFED210A80EE201AA2
:1011A00080ED031A242200F110016846FFF7B1F820
:1011B0001A480FC8FFF74EFA1848D0ED010A30EE72
:1011C000200A80ED010A21E021E009A9154803F079
:1011D000FBFE144890ED030ADFED110A80EE201AA1
:1011E00080ED031A242200F110016846FFF791F800
:1011F0000C480FC8FFF72EFA0A48D0ED010A30EE6E
:10120000200A80ED010A01E0FFE700BF00BF00BF38
:1012100070E70000AC480020E0480020144900209E
:1012200000001042484900207047000010B592B0FD
:10123000044609AB0BAA01212046FFF7BEFB00289C
:101240004FD10D98042805D109A90BA804F08EFCF4
:1012500012B010BD0B98A0F2052010B101283ED1AC
:101260001EE009A9204803F0AFFE1F4890ED030AD5
:10127000F3EE030A80EE201A80ED031A242200F117
:1012800010016846FFF745F817480FC8FFF716FA30
:101290001548D0ED010A30EE200A80ED010A1FE06A
:1012A00009A9124803F090FE104890ED030ADFED03
:1012B000100A80EE201A80ED031A242200F110019A
:1012C0006846FFF726F809480FC8FFF7C3F9074833
:1012D000D0ED010A30EE200A80ED010A00E000BFE7
:1012E00000BF00BFB4E700007C490020B0490020E7
:1012F00000001042704770B5044694F820000128A1
:1013000022D1022084F820002068006820F001002B
:101310002168086000F092FB05460DE000F08EFBAE
:10132000401B0A2808D9606A40F40030606205203A
:1013300084F82000012070BD2068406800F00100A2
:101340000028EBD16062F6E7606A40F4002060623A
:101350000120F0E77047704770477047704770474B
:10136000704770B50446A56D00F068FB064694F81A
:101370003500022808D08020606500BF002084F876
:10138000340000BF012070BD2068006820F0160006
:10139000216808602068406920F080002168486169
:1013A000206C08B9A06C28B12068006820F0080003
:1013B000216808602068006820F00100216808604A
:1013C00010E000F03BFB801B05280BD92020606556
:1013D000032084F8350000BF002084F8340000BFEB
:1013E0000320D0E72068006800F001000028E8D161
:1013F00094F85C103F208840A860012084F83500F4
:1014000000BF002084F8340000BF00BFBBE70146E6
:1014100091F83500022803D08020486501207047EC
:10142000052081F835000868006820F001000A688E
:1014300010600020F3E70000F8B50446002000909B
:101440008C4800684FF41651B0FBF1F7A56D2E687B
:1014500094F85C1008208840304098B120680068FB
:1014600000F0040070B12068006820F004002168DA
:10147000086094F85C1008208840A860606D40F017
:101480000100606594F85C1001208840304068B12C
:101490002068406900F0800040B194F85C100120A1
:1014A0008840A860606D40F00200606594F85C10B0
:1014B00004208840304068B12068006800F00200D5
:1014C00040B194F85C1004208840A860606D40F042
:1014D0000400606594F85C1010208840304078B3B8
:1014E0002068006800F0080050B394F85C101020E9
:1014F0008840A8602068006800F4802080B12068DF
:10150000006800F4002028B9206CC8B12046216C86
:10151000884715E0A06C98B12046A16C88470FE081
:101520002068006800F4807028B92068006820F006
:10153000080021680860206C10B12046216C8847A3
:1015400094F85C10202088403040002865D0206846
:10155000006800F0100000285FD094F85C10202094
:101560008840A86094F83500052828D120680068D4
:1015700020F01600216808602068406920F0800093
:1015800021684861206C08B9A06C28B12068006807
:1015900020F008002168086094F85C103F20884023
:1015A000A860012084F8350000BF002084F83400D2
:1015B00000BF206D10B12046216D8847F8BD20681E
:1015C000006800F4802080B12068006800F40020EA
:1015D00028B9606C10B12046616C88471DE0E06B53
:1015E000D8B12046E16B884717E02068006800F416
:1015F000807068B92068006820F0100021680860D9
:10160000012084F8350000BF002084F8340000BFBA
:10161000E06B10B12046E16B8847606D38B3606DB8
:1016200000F00100F0B1052084F835002068006862
:1016300020F001002168086000BF0098401C009065
:10164000B84200D905E02068006800F001000028D9
:10165000F3D100BF012084F8350000BF002084F8DA
:10166000340000BFE06C10B12046E16C884700BF39
:10167000A4E700004C0000202DE9F04104460025BD
:1016800000F0DCF9074614B90120BDE8F081606A7A
:1016900000B100BF022084F8350000BF002084F8AC
:1016A000340000BF2068006820F001002168086055
:1016B0000AE000F0C3F9C01B052805D920206065A9
:1016C000032084F83500E0E72068006800F001009E
:1016D0000028EED12068056821480540D4E90101C1
:1016E0000843E16808432169084361690843A16927
:1016F0000843E1690843216A08430543606A0428F6
:1017000003D1D4E90B010843054320680560206834
:10171000456925F00705606A0543606A04280DD114
:10172000A06A0543E06A48B12046FEF723FF28B1CE
:1017300040206065012084F83500A6E720684561F7
:101740002046FEF7FDFE064694F85C103F208840D8
:10175000B06000206065012084F83500002094E727
:101760003F8010F02DE9F04704460D4616461F460F
:101770004FF00008D4F8589000BF94F834000128C6
:1017800002D10220BDE8F087012084F8340000BFB8
:1017900094F83500012825D1022084F83500002076
:1017A00060653B46324629462046FEF738FF94F8EE
:1017B0005C103F208840C9F808002068006840F0AD
:1017C000160021680860206C28B12068006840F08D
:1017D0000800216808602068006840F00100216866
:1017E000086006E000BF002084F8340000BF4FF01E
:1017F00002084046C6E7000070B5044600F01EF936
:1018000006462546681C10B104480078054400BF10
:1018100000F014F9801BA842FAD370BD48000020E4
:10182000F8B502460B460025002400200021E0E028
:10183000012606FA01F51E6806EA0504AC4274D1D9
:101840001E7906F00306012E04D01E7906F0030669
:10185000022E13D190684F000326BE40B0434F00C4
:10186000DE68BE4030439060506801268E40B04331
:101870001E79C6F300168E40304350601E7906F084
:101880000306032E09D0D0684F000326BE40B043A4
:101890004F009E68BE403043D0601E7906F00306BC
:1018A000022E13D1CF0802F1200656F827004E076A
:1018B000F70E0F26BE40B0434F07FF0E1E69BE4015
:1018C0003043CF0802F1200646F8270010684F0089
:1018D0000326BE40B0431E7906F003064F00BE400B
:1018E000304310605E6806F44036002E1DD000BF05
:1018F00000260096414E366846F480463F4F3E60D3
:101900003E46366806F48046009600BF00BF3C4E57
:101910008F0856F827008E07370F0F26BE40B043BA
:10192000384EB24202D100262EE061E0364EB2427D
:1019300001D1012628E0354EB24201D1022623E032
:10194000334EB24201D103261EE0324EB24201D1E3
:10195000042619E0304EB24201D1052614E02F4E84
:10196000B24201D106260FE02D4EB24201D1072628
:101970000AE02C4EB24201D1082605E02A4EB242BE
:1019800001D1092600E00A268F073F0FBE403043F1
:101990001B4E8F0846F82700244E3068A0435E682F
:1019A00006F4801606B12043204E3060361D3068A4
:1019B000A0435E6806F4001606B120431B4E361D98
:1019C00030601A4E361F3068A0435E6806F4003659
:1019D00006B12043154E361F3060361F3068A043D5
:1019E0005E6806F4803606B12043104E083E306033
:1019F000491C1029FFF41CAFF8BD00004438024018
:101A00000838014000000240000402400008024083
:101A1000000C024000100240001402400018024076
:101A2000001C02400020024000240240083C01400B
:101A30000AB1816101E00B048361704701480068CD
:101A400070470000400000200348006803490978FF
:101A50000844014908607047400000204800002009
:101A600010B50D48006840F400700B490860084646
:101A7000006840F4806008600846006840F48070A8
:101A80000860032000F0E0F80F2000F007F800F0F5
:101A90005FF8002010BD0000003C02402DE9F0413D
:101AA00088B004460027B84600BF002001902348B4
:101AB000006840F01000214908600846006800F006
:101AC0001000019000BF00BF02A903A800F092F926
:101AD000069F1FB900F0B6F9054602E000F0B2F922
:101AE00045001748B5FBF0F0A0F10108154816496C
:101AF000086040F2E7311448C160C0F8048000215A
:101B000001618160816100F0F9FC064696B90E48DA
:101B100000F028FD06466EB9362000F043F8102C80
:101B200007D200222146362000F050F80748046012
:101B300000E00126304608B0BDE8F08140380240A0
:101B400040420F0000100040F40700204400002035
:101B500008B500BF002000901148006840F48040A4
:101B60000F4908600846006800F48040009000BFFC
:101B700000BF00BF00200090081F006840F08050A8
:101B8000091F08600846006800F08050009000BF00
:101B900000BF00220F21901E00F018F808BD0000C1
:101BA000443802400146084600280DDB00BF00BF54
:101BB00000F01F0301229A4043099B0003F1E02338
:101BC000C3F8002100BF00BF00BF70472DE9F05FE0
:101BD00080460D461646002703F07AF90746394637
:101BE0002A46334601F00700C0F1070ABAF1040F94
:101BF00002D94FF0040A01E0C0F1070AD14600F112
:101C0000040ABAF1070F02D24FF0000A01E0A0F176
:101C1000030AD4464FF0010A0AFA09FAAAF1010AA6
:101C20000AEA020A0AFA0CFA4FF0010B0BFA0CFB53
:101C3000ABF1010B0BEA030B4AEA0B0421464046C9
:101C400003F04EF9BDE8F09F00BF00F00702064B1D
:101C500019684FF6FF031940044B0B4343EA022176
:101C6000014B196000BF70470CED00E00000FA0561
:101C700070B504460D460CB9012070BD5848006887
:101C800000F00F00A84209D255490D7008460068BF
:101C900000F00F00A84201D00120EEE7207800F00C
:101CA000020002281DD1207800F00400042805D18C
:101CB0004C48006840F4E0504A490860207800F041
:101CC0000800082805D14748006840F460404549AD
:101CD00008604448006820F0F000A16808434149CA
:101CE0000860207800F00100A8B36068012807D1DF
:101CF0003C4808380068C0F34040B8B90120BCE750
:101D00006068022802D06068032807D13548083887
:101D10000068C0F3406048B90120AEE73148083898
:101D20000068C0F3400008B90120A6E72D4800680C
:101D300020F00300616808432A490860FFF77EFE2F
:101D4000064609E0FFF77AFE801B41F2883188429F
:101D500002D9032091E707E02248006800F00C0058
:101D60006168B0EB810FEDD11D48006800F00F00F5
:101D7000A84209D91A490D700846006800F00F0002
:101D8000A84201D0012078E7207800F00400042860
:101D900007D11448006820F4E050E1680843114975
:101DA0000860207800F00800082808D10D48006875
:101DB00020F46040216940EAC1000A49086000F04F
:101DC00061F808490968C1F30311074A515CC8402A
:101DD0000649086006480068FFF760FE00204CE7EF
:101DE000003C024008380240A06300084C0000207C
:101DF000440000200F2202600D4A126802F0030224
:101E000042600B4A126802F0F0028260084A1268CF
:101E100002F4E052C260064A126802F46042D2083C
:101E20000261044A126802F00F020A607047000063
:101E300008380240003C024001480068704700003A
:101E40004C00002000B5FFF7F7FF04490968C1F313
:101E50008221034A515CC84000BD0000083802409E
:101E6000B063000800B5FFF7E7FF04490968C1F354
:101E70004231034A515CC84000BD000008380240AE
:101E8000B06300082DE9F047002400250026A14694
:101E90002548006800F00C0020B1042805D008286F
:101EA0003AD105E0DFF8849039E0DFF8849036E03D
:101EB0001D48001F006800F03F041B48001F006819
:101EC00000F4800078B11A481749091F0968C1F366
:101ED0008811A0FB01700146224600233846FEF718
:101EE000E3F905460EE011480F49091F0968C1F3DF
:101EF0008811A0FB01700146224600233846FEF7F8
:101F0000D3F905460848001F0068C0F30140401C93
:101F10004600B5FBF6F902E0DFF8109000BF00BF05
:101F20004846BDE8F0870000083802400024F4006D
:101F3000001BB700F8B504460CB90120F8BD2078A5
:101F400000F00100002874D0F948006800F00C008F
:101F500004280DD0F648006800F00C00082813D1C2
:101F6000F348001F006800F48000B0F5800F0BD12B
:101F7000EF4808380068C0F34040002859D0606836
:101F8000002856D10120D9E700BF6068B0F5803F36
:101F900008D1E7480838006840F48030E44908393F
:101FA00008601EE06068B0F5A02F0DD1E048083849
:101FB000006840F48020DE4908390860084600685F
:101FC00040F4803008600CE0D9480838006820F4FC
:101FD0008030D749083908600846006820F480201E
:101FE000086000BF606890B1FFF728FD054606E075
:101FF000FFF724FD401B642801D903209EE7CC484D
:1020000008380068C0F340400028F1D011E0FFF725
:1020100015FD054606E0FFF711FD401B642801D9B8
:1020200003208BE7C24808380068C0F3404000280E
:10203000F1D1207800F0020002285FD1BC4800688E
:1020400000F00C0058B1BA48006800F00C000828F5
:102050001CD1B748001F006800F48000B0B9B44834
:1020600008380068C0F3400020B1E068012801D0C2
:10207000012063E7AE480838006820F0F8002169C5
:1020800040EAC100AA490839086037E0E06800B3B7
:102090000120A8490860FFF7D1FC054606E0FFF7DC
:1020A000CDFC401B022801D9032047E7A04808388F
:1020B0000068C0F340000028F1D09D48083800684F
:1020C00020F0F800216940EAC10099490839086008
:1020D00014E0002097490860FFF7B0FC054606E0D1
:1020E000FFF7ACFC401B022801D9032026E79048EB
:1020F00008380068C0F340000028F1D1207800F0D3
:10210000080008282CD16069A8B101208A4908601C
:10211000FFF794FC054606E0FFF790FC401B022801
:1021200001D903200AE782486C300068C0F3400000
:102130000028F1D014E000207F490860FFF77EFC02
:10214000054606E0FFF77AFC401B022801D9032070
:10215000F4E677486C300068C0F340000028F1D105
:10216000207800F00400042870D10027704838302F
:10217000006800F0805090B900BF002000906C48CB
:102180003830006840F080506949383108600846AE
:10219000006800F08050009000BF00BF0127674832
:1021A000006800F48070B0B96448006840F4807042
:1021B00062490860FFF742FC054606E0FFF73EFC77
:1021C000401B022801D90320B8E65C48006800F4EF
:1021D00080700028F2D000BFA068012808D15448C0
:1021E0006830006840F001005149683108601DE026
:1021F000A06805280DD14E486830006840F0040002
:102200004B49683108600846006840F001000860EA
:102210000CE047486830006820F00100444968310C
:1022200008600846006820F00400086000BFA0684D
:10223000A8B1FFF703FC054609E0FFF7FFFB401BD1
:1022400041F28831884202D9032077E626E03848F7
:1022500068300068C0F340000028EED013E0FFF7BC
:10226000EDFB054608E0FFF7E9FB401B41F2883132
:10227000884201D9032061E62D4868300068C0F328
:1022800040000028EFD1012F07D1294838300068DD
:1022900020F0805026493831086000BFA06900282E
:1022A00045D02348006800F00C0008285DD0A069E4
:1022B000022845D100201F490866FFF7BFFB0546ED
:1022C00006E0FFF7BBFB401B022801D9032035E6DF
:1022D000174808380068C0F340600028F1D1D4E9FD
:1022E00007010843616A40EA81110122A06AC2EB3A
:1022F000500041EA00412C20005D41EA00600C4999
:10230000091F086001200B490866FFF797FB054687
:1023100006E0FFF793FB401B022801D903200DE6DE
:10232000034808380068C0F340600028F1D049E055
:102330000838024000004742800E474200700040CB
:10234000002021490866FFF779FB054606E0FFF704
:1023500075FB401B022801D90320EFE51B480068EC
:10236000C0F340600028F2D12CE0A069012800D120
:10237000E4E51648001D0668A069012820D006F48F
:102380008001E06981421BD106F03F01206A814251
:1023900016D147F6C0703040616AB0EB811F0FD193
:1023A00006F440310122A06AC2EB5000B1EB004FAD
:1023B00006D106F070612C20005DB1EB006F01D0FA
:1023C0000120BBE50020B9E500004742003802408B
:1023D0007047704710B50346002200BF93F83C00D9
:1023E000012801D1022010BD012083F83C0000BF6C
:1023F00022F0FF00CC6840EA040222F440708C68AE
:1024000040EA040222F480604C6840EA040222F4AC
:1024100000600C6840EA040222F480500C6940EA33
:10242000040222F400504C6940EA040222F4804085
:10243000CC6940EA04021868426400BF002083F8B7
:102440003C0000BF00BFCEE730B502460B4600BFE0
:1024500092F83C00012801D1022030BD012082F811
:102460003C0000BF022082F83D00106844681068FC
:10247000816824F070041868044310684460184DA3
:102480001068A8421BD01068B0F1804F17D0154DCE
:102490001068A84213D0144D1068A8420FD0134DF5
:1024A0001068A8420BD0124D1068A84207D0114DF9
:1024B0001068A84203D0104D1068A84205D121F041
:1024C00080015868014310688160012082F83D0056
:1024D00000BF002082F83C0000BF00BFBDE7000045
:1024E000000001400004004000080040000C0040D3
:1024F00000040140004001400018004010B50446AF
:102500000CB9012010BD94F83D0028B9002084F8D2
:102510003C00204600F025F8022084F83D00211DF3
:10252000206801F0C3FF012084F8460000BF84F852
:102530003E0001213F200155402001554120015519
:1025400000BF00BF012084F8420043200155442011
:1025500001554520015500BF012084F83D000020B1
:10256000D0E77047014691F83D00012801D00120D5
:102570007047022081F83D000868C06840F0010003
:102580000B68D8601A4B086898421BD00868B0F1F5
:10259000804F17D0174B0868984213D0164B086825
:1025A00098420FD0154B086898420BD0144B08681E
:1025B000984207D0134B0868984203D0124B086822
:1025C00098420CD10868806800F00702062A0CD0F7
:1025D0000868006840F001000B68186005E00868B2
:1025E000006840F001000B6818600020C0E70000A0
:1025F000000001400004004000080040000C0040C2
:10260000000401400040014000180040704770B5D0
:1026100004462068C5682068066906F002000228A2
:1026200019D105F00200022815D1401F2168086168
:10263000012020772068806900F0030018B120464F
:10264000FFF7E4FF05E0204600F068F9204600F0BF
:1026500095FA0020207706F00400042819D105F02F
:102660000400042815D1C0432168086102202077A6
:102670002068806900F4407018B12046FFF7C6FF5B
:1026800005E0204600F04AF9204600F077FA0020E5
:10269000207706F00800082819D105F0080008285E
:1026A00015D1C04321680861042020772068C069E3
:1026B00000F0030018B12046FFF7A8FF05E0204610
:1026C00000F02CF9204600F059FA0020207706F09F
:1026D0001000102819D105F01000102815D1C043A2
:1026E00021680861082020772068C06900F44070E4
:1026F00018B12046FFF78AFF05E0204600F00EF9EA
:10270000204600F03BFA0020207706F0010048B197
:1027100005F0010030B16FF001002168086120462A
:1027200000F0B4FA06F08000802809D105F080009E
:10273000802805D1C043216808612046FFF748FE84
:1027400006F04000402809D105F04000402805D19E
:10275000C04321680861204600F0A4FA06F020007A
:10276000202809D105F02000202805D1C043216888
:1027700008612046FFF72DFE70BD000010B586B041
:102780000446142101A8FDF7DDFD2068B0F1804F5B
:102790001DD100BF002000903E48006840F00100BD
:1027A0003C4908600846006800F00100009000BF46
:1027B00000BF0F200190022002900020039004909F
:1027C0000120059001A93448FFF72AF85FE033495A
:1027D000206888423AD100BF002000902D48006850
:1027E00040F480702B4908600846006800F480704F
:1027F000009000BF00BF00BF0020009008460068A6
:1028000040F0800008600846006800F080000090FA
:1028100000BF00BF01200190022002900020039021
:1028200004900220059001A91D48FEF7F9FF4FF41E
:10283000E0500190022002900020039004900220BA
:10284000059001A91748FEF7EBFF20E01649206824
:1028500088421CD100BF002000900E48006840F460
:1028600080700C4908600846006800F48070009091
:1028700000BF00BFE42001900220029000200390DE
:1028800004900320059001A90548FEF7C9FF06B092
:1028900010BD00003038024000000240000C004033
:1028A00000200240001C0240000401402DE9F041DC
:1028B00004460E461546002700BF94F83C00012848
:1028C00002D10220BDE8F081012084F83C0000BF65
:1028D00035B1042D09D0082D0CD00C2D14D10EE0EB
:1028E0003146206801F068FE10E03146206801F0B2
:1028F0009BFE0BE03146206801F0D4FE06E0314635
:10290000206801F00BFF01E0012700BF00BF00BFFE
:10291000002084F83C0000BF3846D3E7704710B56C
:1029200004460CB9012010BD94F83D0028B90020E0
:1029300084F83C00204600F025F8022084F83D0091
:10294000211D206801F0B2FD012084F8460000BF7F
:1029500084F83E0001213F200155402001554120CF
:10296000015500BF00BF012084F8420043200155FB
:10297000442001554520015500BF012084F83D0049
:102980000020D0E770472DE9F04104460D46164679
:10299000002700BF94F83C00012802D10220BDE8C6
:1029A000F081012084F83C0000BF36B1042E1BD01A
:1029B000082E31D00C2E5ED145E02946206801F06A
:1029C000FBFD2068806940F008002168886120686C
:1029D000806920F004002168886120688069296985
:1029E00008432168886148E02946206801F01CFE00
:1029F0002068806940F400602168886120688069EF
:102A000020F480602168886120688069296940EA33
:102A100001202168886130E02946206801F042FEEB
:102A20002068C06940F008002168C8612068C0695A
:102A300020F004002168C8612068C0692969084342
:102A40002168C86119E02946206801F067FE206806
:102A5000C06940F400602168C8612068C06920F442
:102A600080602168C8612068C069296940EA012046
:102A70002168C86101E0012700BF00BF00BF00203E
:102A800084F83C0000BF384689E710B504460CB90D
:102A9000012010BD94F83D0028B9002084F83C00C6
:102AA000204600F025F8022084F83D00211D206812
:102AB00001F0FCFC012084F8460000BF84F83E00D1
:102AC00001213F200155402001554120015500BF03
:102AD00000BF012084F842004320015544200155E5
:102AE0004520015500BF012084F83D000020D0E7BB
:102AF00008B50168B1F1804F0FD100BF00210091EE
:102B00001B49096841F00101194A11601146096821
:102B100001F00101009100BF29E0164A01689142CD
:102B20000FD100BF002100911149096841F008014F
:102B30000F4A11601146096801F00801009100BFB9
:102B400015E00D4A0168914211D100BF00210091AA
:102B50000749091D096841F00201054A121D11606B
:102B60001146096801F00201009100BF00BF08BDD5
:102B700040380240000C0040000401407047000053
:102B800070B504460D4615B994F83E000BE0042DCF
:102B900002D13F20005D06E0082D02D14020005DFB
:102BA00001E04120005D012801D0012070BD1DB968
:102BB000022084F83E000EE0042D03D102213F20C4
:102BC000015508E0082D03D102214020015502E003
:102BD00002214120015501222946206801F0DAFC3A
:102BE00023492068884203D022492068884201D1C5
:102BF000012000E0002028B12068406C40F4004033
:102C0000216848641A49206888421BD02068B0F1C6
:102C1000804F17D018492068884213D01749206880
:102C200088420FD01649206888420BD0114920688D
:102C3000884207D013492068884203D0124920688F
:102C400088420CD12068806800F00706062E0CD060
:102C50002068006840F001002168086005E02068F5
:102C6000006840F001002168086000209EE7000035
:102C70000000014000040140000400400008004042
:102C8000000C0040004001400018004010B5044610
:102C900003492068884201D1FEF7D6FE10BD00002E
:102CA000001000407047704770B50446002520684A
:102CB0004069C0F3C01594F84100212817D1B5B17F
:102CC00000BF00BF2168143151E8001F21F08000CF
:102CD0002168143141E80002002AF3D100BFA06B43
:102CE00010B1A06BFEF73DFB204601F08EFE206880
:102CF0004069C0F3801594F84200222817D1B5B17D
:102D000000BF00BF2168143151E8001F21F04000CE
:102D10002168143141E80002002AF3D100BFE06BC2
:102D200010B1E06BFEF71DFB204601F028FE0020ED
:102D300070BD70472DE9F84F04462068056820688B
:102D4000C668206847694FF00009CA4605F00F09B8
:102D5000B9F1000F0AD105F0200038B106F02000CB
:102D600020B1204601F064FEBDE8F88FB9F1000FF4
:102D70007CD007F0010018B906F49070002875D0D7
:102D800005F0010030B106F4807018B1606C40F0BD
:102D90000100606405F0040030B107F0010018B1D3
:102DA000606C40F00200606405F0020030B107F092
:102DB000010018B1606C40F00400606405F0080088
:102DC00048B106F0200010B907F0010018B1606C9E
:102DD00040F008006064606C002846D005F02000D8
:102DE00028B106F0200010B1204601F021FE206835
:102DF0004069C0F3801A606C00F0080010B9BAF1A5
:102E0000000F2DD0204601F0BAFD2068406900F087
:102E10004000402820D100BF00BF2168143151E894
:102E2000001F21F040002168143141E80002002A0F
:102E3000F3D100BFE06B50B17748E16B0865E06B00
:102E4000FEF7E5FA88B1E06B016D88470DE020469A
:102E5000FFF76FFF09E009E02046FFF76AFF04E093
:102E60002046FFF766FF002060647DE7206B0128A5
:102E700078D105F01000002874D006F0100000286A
:102E8000FAD000BF00200090206800680090206801
:102E90004068009000BF00BF2068406900F040001B
:102EA000402860D1E06B006840681FFA80F8B8F1F4
:102EB000000F56D0A08D404553DDA4F82E80E06B66
:102EC000C069B0F5807F43D000BF00BF21680C31DE
:102ED00051E8001F21F4807021680C3141E80002A4
:102EE000002AF3D100BF00BF00BF2168143151E8B0
:102EF000001F21F001002168143141E80002002A7E
:102F0000F3D100BF00BF00BF2168143151E8001F9A
:102F100021F040002168143141E80002002AF3D179
:102F200000BF202084F842000020206300BF00BFC3
:102F300021680C3151E8001F21F0100021680C318C
:102F400041E80002002AF3D100BFE06BFEF709FA66
:102F500002206063A08DE28D801A81B22046FFF7C7
:102F6000A2FE01E742E0A08DE18D401A1FFA80F831
:102F7000E08DD0B3B8F1000F37D000BF00BF21689B
:102F80000C3151E8001F21F4907021680C3141E8A8
:102F90000002002AF3D100BF00BF00BF2168143136
:102FA00051E8001F21F001002168143141E80002BE
:102FB000002AF3D100BF202084F8420000202063C3
:102FC00000BF00BF21680C3151E8001F21F0100044
:102FD00021680C3141E80002002AF3D100BF022031
:102FE000606341462046FFF75EFEBDE605F08000C7
:102FF00030B106F0800018B1204601F011FFB3E6B1
:1030000005F0400030B106F0400018B1204601F054
:10301000ECFCA9E600BFA7E6DD47000810B50446B2
:103020000CB9012010BDA06900B100E000BF94F808
:10303000410028B9002084F84000204600F02AF81A
:10304000242084F841002068C06820F400502168E2
:10305000C860204601F06AFD2068006920F49040B5
:10306000216808612068406920F02A0021684861D1
:103070002068C06840F400502168C8600020606487
:10308000202084F8410084F842000020606300BFE3
:10309000C8E7000010B586B00446142101A8FDF76A
:1030A00051F999492068884259D100BF0020009009
:1030B0009648006840F080409449086008460068DF
:1030C00000F08040009000BF00BF00BF00200090D3
:1030D0008E481038006840F010008C4910390860A4
:1030E0000846006800F01000009000BF00BF4FF4D9
:1030F000C0700190022002900020039003200490F1
:103100000820059001A98248FEF78AFB8148824980
:1031100008608005486040217F4881600021C160CF
:103120004FF480610161002141618161C1614FF40F
:103130008031016200214162FEF79EFA08B1FDF77D
:1031400085FA00BF7448A063846300BF0022052194
:103150005220FEF73BFD5220FEF724FDD2E06F49DE
:10316000206888427BD100BF00200090674800683B
:1031700040F00040654908600846006800F00040E3
:10318000009000BF00BF00BF002000905F481038D3
:10319000006840F010005D4910390860084600687A
:1031A00000F01000009000BF00BF0320019002203B
:1031B000029000200390032004900820059001A9AC
:1031C0005348FEF72DFB53487830554908600005F9
:1031D0004860002152488160C1604FF48061016104
:1031E000002141618161C1614FF4403101620021E0
:1031F0004162FEF741FA08B1FDF728FA00BF4848DE
:10320000E063846300BF43481838464908604FF0C4
:10321000206048604021434881600021C1604FF434
:1032200080610161002141618161C1614FF44031E0
:10323000016200214162FEF71FFA08B1FDF706FAAC
:1032400000BF3848A063846300BF002205215320DB
:10325000FEF7BCFC5320FEF7A5FC53E0FFE7324924
:10326000206888424ED100BF002000902748001DF2
:10327000006840F020002549091D086008460068E4
:1032800000F02000009000BF00BF00BF00200090B1
:103290001E481038006840F040001C491039086092
:1032A0000846006800F04000009000BF00BF4FF4E7
:1032B000844001900220029000200390032004909B
:1032C0000820059001A91948FEF7AAFA18481949DB
:1032D000086080054860002116488160C1604FF495
:1032E00080610161002141618161C16101624162CE
:1032F000FEF7C2F908B1FDF7A9F900BF0D48E06378
:10330000846300BF06B010BD007800404038024022
:10331000001002402860024074060020007C00403B
:10332000D406002034070020001401400018024099
:10333000286402409407002070B504460D461646E6
:1033400094F8420020280BD105B10EB9012070BDC0
:103350000020206332462946204601F0FDFCF6E7B6
:103360000220F4E770477047F7B50446154694F815
:103370004100202836D1019800B10DB90120FEBDD1
:1033800001982062A584E58400206064212084F8EF
:1033900041001548A16BC8631448A16B0864144828
:1033A000A16BC8640020A16B086501AE23681A1DDB
:1033B00031682B46A06BFEF7D5F96FF0400021680D
:1033C000086000BF00BF2168143151E8001F41F0C0
:1033D00080002168143141E80002002AF3D100BFC7
:1033E0000020CCE70220CAE719490008714900080B
:1033F000F147000870477047002400BF00BF0C2150
:103400001248FFF7BDFB0C211148FFF7B9FB07E09D
:10341000601C84B20D48006844630120FEF7ECF99B
:10342000B4F5FA7FF4DB07E0601E84B20748006859
:1034300044630120FEF7E0F9002CF5D1C820FEF727
:10344000DBF9012001F054FED9E7000074030020ED
:103450000404002000BFFEE700BF00240BE0094980
:1034600001EB8401D1ED000AB0EE600A611CC8B224
:1034700001F070FD641C042CF1DB0A2001F038FE21
:10348000EBE700007C4A002018B58DED000A9DF89E
:1034900003300C88621C0A8003559DF802300C88AA
:1034A000621C0A8003559DF801300C88621C0A805A
:1034B00003559DF800300C88621C0A80035518BD26
:1034C00010B502460B460020002104E0545C044481
:1034D000E0B24C1CA1B29942F8DB10BD70B52DEDE5
:1034E000028BB548007801287ED1B3484078022885
:1034F000FAD100240125601C2844AF49085C01066C
:10350000A01C2844AC4A105C41EA0041E01C28445D
:10351000105C41EA0020211D2944515C084300EE63
:10352000100AB8EEC00AA54880ED000A90ED000A26
:1035300010EE101A0846FCF710FF41EC180BB0EE25
:10354000480AF0EE680AFCF7E0FE49F6404188427E
:1035500004DD9FED9B0A994880ED000A241D601C44
:1035600028449549085C0106A01C2844924A105C36
:1035700041EA0041E01C2844105C41EA0020211D82
:103580002944515C084300EE100AB8EEC00A8B488B
:1035900080ED010A90ED010A10EE101A0846FCF7C2
:1035A000DCFE41EC180BB0EE480AF0EE680AFCF7BE
:1035B000ACFE49F64041884204DD9FED810A7F4818
:1035C00080ED010A241D601C28447B49085C01062B
:1035D000A01C2844784A105C41EA0041E01C2844C1
:1035E000105C41EA002000E058E0211D2944515CB4
:1035F000084300EE100AB8EEC00A704880ED020AD7
:1036000090ED020A10EE101A0846FCF7A6FE41ECF7
:10361000180BB0EE480AF0EE680AFCF776FE49F6A1
:103620004041884204DD9FED660A644880ED020A4D
:10363000241D601C28446049085C0106A01C284425
:103640005D4A105C41EA0041E01C2844105C41EAFC
:103650000020211D2944515C084300EE100AB8EEF9
:10366000C00A564880ED030A90ED030A10EE101AC6
:103670000846FCF772FE41EC180BB0EE480AF0EE7B
:10368000680AFCF742FE49F64041884204DD9FED9E
:103690004C0A4A4880ED030A241D00BF46480078C2
:1036A00002287DD144484078032879D101200121A6
:1036B000414A9278012A06D0022A20D0032A3AD021
:1036C000042A73D153E0421C0A443B4B9A5C130614
:1036D000821C0A44384CA25C43EA0243C21C0A44DE
:1036E000A25C43EA0222031D0B44E35C1A4300EE92
:1036F000102AB8EEC00A314A82ED000A57E0421C97
:103700000A442D4B9A5C1306821C0A442A4CA25C84
:1037100043EA0243C21C0A44A25C43EA0222031D9C
:103720000B44E35C1A4300EE102AB8EEC00A234AA9
:1037300082ED010A3BE0421C0A441F4B9A5C1306CF
:10374000821C0A441C4CA25C43EA0243C21C0A4489
:10375000A25C43EA0222031D0B44E35C1A4300EE21
:10376000102AB8EEC00A154A82ED020A1FE0421C78
:103770000A44114B9A5C1306821C0A440E4CA25C4C
:1037800043EA0243C21C0A44A25C43EA0222031D2C
:103790000B44E35C1A4300EE102AB8EEC00A01E0C5
:1037A00007E003E0054A82ED030A00E000BF00BF26
:1037B00000BFBDEC028B70BD4C0400207C4A002091
:1037C00000401C4738B502F0CDF9054600200090B6
:1037D0001F4890F84100202800D038BDFF21BDF8D7
:1037E0000020501C80B200901A488154DD21BDF8A1
:1037F0000020501C80B20090164881542021BDF852
:103800000020501C80B200901248815400240BE02C
:1038100005EB8400D0ED000AB0EE600A69460D4861
:10382000FFF732FE601CC4B2082CF1D3BDF80010C3
:103830000848FFF745FEBDF80020511C89B20091F1
:103840000449885424220248FFF78EFD00BFC4E7D4
:10385000E40500207805002010B5104810490860E4
:103860000320486000210E488160C1604FF40021B0
:1038700001614FF44011416100210176012141763F
:10388000002181760121C176002101774177FDF782
:10389000A0FA08B1FCF7DAFE10BD00000064004099
:1038A0002403002010B50F480F490860032048602A
:1038B00000210D488160C1604FF4002101614FF487
:1038C000401141610021017601214176002181767C
:1038D000C17601774177FDF77CFA08B1FCF7B6FEB7
:1038E00010BD0000006800404C03002008B500BF78
:1038F000002000901E48006840F400101C49086039
:103900000846006800F40010009000BF00BF00BF30
:10391000002000900846006840F4800008600846D7
:10392000006800F48000009000BF00BF0022052165
:103930000B20FEF74BF90B20FEF734F9002205218E
:103940000C20FEF743F90C20FEF72CF9002205218C
:103950001120FEF73BF91120FEF724F90022052182
:103960003920FEF733F93920FEF71CF908BD0000B5
:103970003038024000B5ABB01C22244924A8FCF723
:10398000C8FC002124A801F0C4FB214908601C22C6
:103990001E491C311DA8FCF7BCFC00211DA801F02C
:1039A000B8FB1C4908601C221849383116A8FCF7DE
:1039B000B0FC002116A801F0ACFB174908601C22DE
:1039C000124954310FA8FCF7A4FC00210FA801F004
:1039D000A0FB124908601C220C49703108A8FCF7B2
:1039E00098FC002108A801F094FB0D4908601C22F6
:1039F00006498C3101A8FCF78CFC002101A801F0DC
:103A000088FB084908602BB000BD0000F062000888
:103A10002000002024000020280000202C0000208E
:103A2000300000203400002000B587B0142102A827
:103A3000FCF788FC00BF002001906B48006840F054
:103A40001000694908600846006800F01000019005
:103A500000BF00BF00BF002001900846006840F092
:103A6000400008600846006800F04000019000BF78
:103A700000BF00BF002001900846006840F0010030
:103A800008600846006800F00100019000BF00BF18
:103A900000BF002001900846006840F00800086060
:103AA0000846006800F00800019000BF00BF00BF9A
:103AB000002001900846006840F4807008600846C5
:103AC000006800F48070019000BF00BF00BF0020BC
:103AD00001900846006840F08000086008460068D1
:103AE00000F08000019000BF00BF00BF00200190E7
:103AF0000846006840F0020008600846006800F0D0
:103B00000200019000BF00BF00221E213748FDF7D0
:103B10008FFF1E200290012003900020049005904A
:103B200002A93248FDF77CFE3C200290032005905C
:103B300002A92F48FDF774FE01223C212C48FDF715
:103B400077FF00BF002001902748006840F0200068
:103B5000254908600846006800F02000019000BF79
:103B600000BF032002900220059002A92148FDF722
:103B700057FE002203211F48FDF75AFF41F2700053
:103B8000029002A91C48FDF74BFE002241F2700191
:103B90001948FDF74DFF3020029002A91748FDF7A4
:103BA0003FFE002230211548FDF742FF00BF0020F4
:103BB00001900D48006840F004000B490860084679
:103BC000006800F00400019000BF00BF33200290A5
:103BD00002A90B48FDF724FE002233210848FDF717
:103BE00027FF07B000BD0000303802400018024037
:103BF000001C02400014024000100240000002407D
:103C00000008024000B589B00020079008901C21F0
:103C10006846FCF797FB4FF080402449086053202A
:103C200048600021214881606321C1600021016159
:103C30008161FEF72AFF08B1FCF708FD002007901C
:103C4000089007A91948FEF7FFFB08B1FCF7FEFC36
:103C500060200090002001900290049008226946A4
:103C60001248FEF790FE08B1FCF7F0FC002001902E
:103C70000C2269460D48FEF786FE08B1FCF7E6FC0B
:103C8000002269460948FEF77EFE08B1FCF7DEFC1B
:103C9000042269460548FEF776FE08B1FCF7D6FC1B
:103CA0000248FEF76BFD09B000BD00007403002060
:103CB00000B589B00020079008901C216846FCF7E9
:103CC00041FB2848284908605320486000212648C5
:103CD00081606321C160002101618161FEF7D5FE31
:103CE00008B1FCF7B3FC2048FEF719FE08B1FCF759
:103CF000ADFC00200790089007A91B48FEF7A4FB25
:103D000008B1FCF7A3FC6020009000200190029015
:103D10000490002269461448FEF735FE08B1FCF70E
:103D200095FC00200190042269460F48FEF72BFE07
:103D300008B1FCF78BFC082269460B48FEF723FE0E
:103D400008B1FCF783FC002000900C22694606486D
:103D5000FEF7ACFD08B1FCF779FC0348FEF70EFD59
:103D600009B000BD000C0040BC03002000B591B0BC
:103D700000200F9010901C2108A8FCF7E3FA2021E6
:103D80006846FCF7DFFA2E482E490860A3204860F9
:103D900000212C4881606321C160002101614161E3
:103DA0008161FEF772FE08B1FCF750FC00200F9015
:103DB00010900FA92348FEF747FB08B1FCF746FC1B
:103DC00060200890002009900A900B900C900D90B4
:103DD0000E90002208A91B48FEF7D5FD08B1FCF79C
:103DE00035FC042208A91748FEF7CDFD08B1FCF701
:103DF0002DFC082208A91348FEF7C5FD08B1FCF701
:103E000025FC0C2208A90F48FEF7BDFD08B1FCF700
:103E10001DFC0020009001900290039004904FF44C
:103E2000005005900020079069460648FEF7D2FA38
:103E300008B1FCF70BFC0348FEF7A0FC11B000BD75
:103E4000000401400404002010B50B480B49086031
:103E50004FF4E1304860002108488160C160016191
:103E60000C21416100218161C161FFF7D7F808B1E0
:103E7000FCF7ECFB10BD0000007800409C05002022
:103E800010B51148114908604FF4E1304860002135
:103E90000E488160C16001610C2141610021816196
:103EA000C161FFF7BBF808B1FCF7D0FB0748006819
:103EB000C06840F0100005490968C86064220449E0
:103EC0000248FFF739FA10BD007C0040E4050020ED
:103ED0004C04002010B50B480B4908604FF4E1304A
:103EE0004860002108488160C16001610C21416186
:103EF00000218161C161FFF791F808B1FCF7A6FBD1
:103F000010BD0000001401402C06002000BFFEE799
:103F100000BF012001F0ECF8FBE70000B1EE040A5D
:103F2000624880ED010A9FED620A80ED020A9FED72
:103F3000610A80ED030A9FED600A80ED0B0A9FED98
:103F40005F0A80ED0C0A9FED5B0A80ED070A9FED8A
:103F5000590A80ED050A9FED5A0A80ED0D0AB1EE6F
:103F6000040A584880ED010A9FED510A80ED020ACB
:103F70009FED500A80ED030A9FED4F0A80ED0B0A7A
:103F80009FED4E0A80ED0C0A9FED4A0A80ED070A6C
:103F90009FED480A80ED050A9FED490A80ED0D0A64
:103FA000B1EE040A484880ED010A9FED410A80ED18
:103FB000020A9FED400A80ED030A9FED3F0A80ED63
:103FC0000B0A9FED3E0A80ED0C0A9FED3A0A80ED48
:103FD000070A9FED380A80ED050A9FED390A80ED4A
:103FE0000D0AB1EE040A394880ED010A9FED300A4E
:103FF00080ED020A9FED2F0A80ED030A9FED2E0A45
:1040000080ED0B0A9FED2D0A80ED0C0A9FED290A29
:1040100080ED070A9FED270A80ED050A9FED280A2B
:1040200080ED0D0AB1EE040A294880ED010A9FEDEA
:10403000200A80ED020A9FED1F0A80ED030A9FED22
:104040001E0A80ED0B0A9FED1D0A80ED0C0A9FED04
:10405000190A80ED070A9FED170A80ED050A9FED0A
:10406000180A80ED0D0AB1EE040A1A4880ED010A23
:104070009FED0F0A80ED020A9FED0E0A80ED030A04
:104080009FED0D0A80ED0B0A9FED0C0A80ED0C0AE6
:104090009FED080A80ED070A9FED060A80ED050AEC
:1040A0009FED070A80ED0D0A704700002C450020A7
:1040B0006F12833A0000000000007A430000FA43C8
:1040C000000048429C4500200C4600207C46002011
:1040D000EC4600205C4700209FED630A634880EDBA
:1040E000010A9FED630A80ED020A9FED620A80EDEE
:1040F000030A9FED610A80ED0B0A9FED600A80EDD7
:104100000C0A9FED5C0A80ED070A9FED5A0A80EDCC
:10411000050A9FED5B0A80ED0D0A9FED530A594891
:1041200080ED010A9FED520A80ED020A9FED510ACF
:1041300080ED030A9FED500A80ED0B0A9FED4F0AB8
:1041400080ED0C0A9FED4B0A80ED070A9FED490AAE
:1041500080ED050A9FED4A0A80ED0D0A9FED420AA7
:10416000494880ED010A9FED420A80ED020A9FED69
:10417000410A80ED030A9FED400A80ED0B0A9FED96
:104180003F0A80ED0C0A9FED3B0A80ED070A9FED88
:10419000390A80ED050A9FED3A0A80ED0D0A9FED80
:1041A000320A3A4880ED010A9FED310A80ED020A99
:1041B0009FED300A80ED030A9FED2F0A80ED0B0A78
:1041C0009FED2E0A80ED0C0A9FED2A0A80ED070A6A
:1041D0009FED280A80ED050A9FED290A80ED0D0A62
:1041E0009FED210A2A4880ED010A9FED2A0A80ED01
:1041F000020A9FED200A80ED030A9FED1F0A80ED61
:104200000B0A9FED1E0A80ED0C0A9FED1A0A80ED45
:10421000070A9FED180A80ED050A9FED190A80ED47
:104220000D0A9FED110A1C4880ED010A9FED100A4E
:1042300080ED020A9FED0F0A80ED030A9FED0E0A42
:1042400080ED0B0A9FED0D0A80ED0C0A9FED090A27
:1042500080ED070A9FED070A80ED050A9FED080A29
:1042600080ED0D0A704700000000204264450020E8
:10427000A69BC43B000000000000FA450000FA4481
:104280000000C843D445002044460020B446002026
:1042900024470020CDCCCC3D9447002000BFFEE752
:1042A00000B5FFF719FFFFF739FE00BD00BF1F483B
:1042B00090F83000012816D0022804D004282AD013
:1042C000052829D11FE0194890ED011AF0EE410AA6
:1042D00090ED001AB0EE410A1548FCF7A5F8134816
:1042E00080ED020A00BF114890ED031AF0EE410A7A
:1042F00090ED021AB0EE410A0E48FCF795F80B4813
:1043000080ED060A00BF094890ED060ABDEEC00A1E
:1043100080ED0B0A04E003E000200449C86200BFFE
:1043200000BF012000F0E4FEC1E70000AC4800201F
:104330002C4500206445002000BF012000F0D8FE7D
:10434000FBE7000010B500BF502080F31188BFF3D9
:104350004F8FBFF36F8F00BF01F0A4FE18B14FF075
:1043600080500449086000BF002080F3118800BF1E
:1043700010BD000004ED00E000B593B0302107A8A7
:10438000FBF7E0FF142102A8FBF7DCFF00BF0020D1
:1043900001902448006840F0805022490860084697
:1043A000006800F08050019000BF00BF00BF0020F7
:1043B00001901D48006840F440401B4908600846D1
:1043C000006800F44040019000BF00BF012007904A
:1043D0000004089002200D9041050E9106210F91D6
:1043E000A8211091022111910421129107A8FDF733
:1043F000A1FD08B1FCF72AF90F20029002200390DA
:10440000002004904FF4A05005904FF48050069087
:10441000052102A8FDF72CFC08B1FCF717F913B031
:1044200000BD0000403802400070004003480068B2
:1044300040F47000014908607047000088ED00E01A
:1044400010B5FFF709FA134800F01CFE1148FCF7FD
:1044500052FF02210F48FCF763F9FFF723FA0E48D9
:1044600000F010FE0C48FCF746FF10210A48FCF74C
:1044700057F9FFF73BFAFFF7E7FCFFF701FDFFF7FE
:1044800029FDFFF70DFF01F071FCC820FDF7B4F91D
:1044900010BD0000240300204C03002010B502488A
:1044A000FEF7B5F810BD0000F407002010B5026853
:1044B0002D4B98420ED0B0F1804F0BD02B4B984231
:1044C00008D02B4B984205D02A4B984202D02A4B59
:1044D000984203D122F070024B681A43224B984253
:1044E00020D0B0F1804F1DD0204B98421AD0204BE5
:1044F000984217D01F4B984214D01F4B984211D0AE
:104500001E4B98420ED01E4B98420BD01D4B98422A
:1045100008D01D4B984205D01C4B984202D01C4B32
:10452000984203D122F44072CB681A4322F08003F0
:104530004C6943EA040202608B68C3620B688362C1
:10454000094B984202D00C4B984201D10B6903638E
:1045500001234361036903F001031BB1036923F0E5
:104560000103036110BD0000000001400004004091
:1045700000080040000C00400004014000400140E1
:10458000004401400048014000180040001C004069
:104590000020004030B501F01F05012404FA05F3A6
:1045A000046A9C430462046A01F01F0502FA05F5DF
:1045B0002C43046230BD000030B5026A056A25F064
:1045C000010505624368846924F0700424F0030443
:1045D0000D682C4322F002028D682A43104DA84238
:1045E00000D103E00F4DA84206D100BF22F008021F
:1045F000CD682A4322F00402094DA84202D0094D99
:10460000A84207D123F4807323F400734D692B4330
:104610008D692B43436084614D684563026230BD00
:10462000000001400004014030B5026A056A25F02F
:10463000100505624368846924F4E04424F440745E
:104640000D6844EA052422F020028D6842EA051232
:10465000124DA84200D103E0114DA84207D100BF7E
:1046600022F08002CD6842EA051222F040020B4D92
:10467000A84202D00A4DA84209D123F4806323F452
:1046800000634D6943EA85038D6943EA850343600E
:1046900084614D688563026230BD00000000014006
:1046A0000004014030B5026A056A25F48075056290
:1046B0004368C46924F0700424F003040D682C439B
:1046C00022F400728D6842EA0522124DA84200D100
:1046D00003E0114DA84207D100BF22F40062CD686B
:1046E00042EA052222F480620A4DA84202D00A4D15
:1046F000A84209D123F4805323F400534D6943EABF
:1047000005138D6943EA05134360C4614D68C563B1
:10471000026230BD000001400004014030B5036A70
:10472000056A25F4805505624468C26922F4E042B6
:1047300022F440720D6842EA052223F400538D688A
:1047400043EA0533084DA84202D0084DA84204D1DF
:1047500024F480444D6944EA85144460C2614D6884
:104760000564036230BD0000000001400004014008
:1047700010B50248FEF7DEFA10BD00009C050020CF
:1047800038B50025114800680068C0F30015CDB1A8
:1047900000BF002000900D480068006800900B48A2
:1047A00000684068009000BF00BF0848FEF77CFA30
:1047B000074800684468C4F1640006490870012095
:1047C000054908700148FEF7B5FA38BDE405002038
:1047D000D40600203C0000203D00002070B50546B6
:1047E000AC6B0020E085E0842046FEF7A2FA70BDA5
:1047F00070B506460025B46B20684069C0F3C0154B
:1048000094F84100212805D125B10020E0842046FC
:1048100000F0FBF820684069C0F3801594F842006E
:10482000222805D125B10020E085204600F0A7F818
:10483000606C40F0100060642046FEF77AFA70BDAC
:1048400070B50546AC6B2868006800F480700028DD
:1048500042D1E08500BF00BF21680C3151E8001F44
:1048600021F4807021680C3141E80002002AF3D164
:1048700000BF00BF00BF2168143151E8001F21F0C4
:1048800001002168143141E80002002AF3D100BF81
:1048900000BF00BF2168143151E8001F21F0400023
:1048A0002168143141E80002002AF3D100BF202022
:1048B00084F84200206B01280ED100BF00BF2168A0
:1048C0000C3151E8001F21F0100021680C3141E843
:1048D0000002002AF3D100BF00206063206B012892
:1048E00004D1A18D2046FEF7DEF902E02046FEF756
:1048F00039FD70BD70B50546AC6B01206063206B5F
:10490000012805D1A08D41082046FEF7CCF902E030
:104910002046FEF728FD70BD70B50546AC6B2868D3
:10492000006800F48070F8B90020E08400BF00BF88
:104930002168143151E8001F21F0800021681431F2
:1049400041E80002002AF3D100BF00BF00BF216888
:104950000C3151E8001F41F0400021680C3141E862
:104960000002002AF3D102E02046FEF743FD70BDAD
:1049700070B50446A56B2846FEF73DFD70BD00BF2F
:1049800000BF02680C3252E8002F22F490710268D6
:104990000C3242E80013002BF3D100BF00BF00BF70
:1049A0000268143252E8002F22F00101026814322A
:1049B00042E80013002BF3D100BF016B01290ED197
:1049C00000BF00BF02680C3252E8002F22F0100135
:1049D00002680C3242E80013002BF3D100BF202103
:1049E00080F8421000210163704710B5044620682A
:1049F000C06820F040002168C860202084F8410091
:104A00002046FEF7F7FC002010BD00BF00BF026883
:104A10000C3252E8002F22F0C00102680C3242E84A
:104A20000013002BF3D100BF202180F84110704704
:104A3000F8B5044694F84200222875D1A068B0F574
:104A4000805F0CD1206950B90025A66A20684068B3
:104A5000C0F308003080A06A801CA06215E0A56A3F
:104A60000026A068B0F5805F03D0A06828B920694F
:104A700018B920684068287004E02068406800F099
:104A80007F002870A06A401CA062E08D401E80B2AA
:104A9000E085002846D12068C06820F02000216809
:104AA000C8602068C06820F480702168C8602068F1
:104AB000406920F0010021684861202084F842000C
:104AC00000206063206B012826D10020206300BFF6
:104AD00000BF21680C3151E8001F21F0100021684F
:104AE0000C3141E80002002AF3D100BF20680068C1
:104AF00000F0100010280AD100BF002000902068AC
:104B00000068009020684068009000BF00BFA18D41
:104B10002046FEF7C8F802E02046FEF723FC0020FE
:104B2000F8BD01E00020FBE70220F9E72DE9F84F8E
:104B300004462068006920F44050E1680843216879
:104B400008612169A068084361690843E169084375
:104B500000902068C06849F20C61884300990843BE
:104B60002168C8602068406920F44070A16908434A
:104B70002168486176492068884203D075492068D9
:104B8000884203D1FDF76EF9814602E0FDF75AF93C
:104B90008146E069B0F5004F6CD102206168A0FB4E
:104BA000015003461920A9FB007001462A463846E9
:104BB000FBF77AFB6421B0FBF1F04FEA001A022008
:104BC0006168A0FB01510B461920A9FB00712A4620
:104BD0003846FBF769FB834602206168A0FB015061
:104BE00003461920A9FB00712A463846FBF75CFBF7
:104BF0006421B0FBF1F000EBC00101EB0010ABEB66
:104C00008000322101EBC0006421B0FBF1F000F024
:104C1000F8000AEB400A02206168A0FB015003463D
:104C20001920A9FB007001462A463846FBF73CFBD9
:104C3000834602206168A0FB015003461920A9FBAE
:104C400000712A463846FBF72FFB6421B0FBF1F0D8
:104C500000EBC00101EB0010ABEB8000322101EB57
:104C6000C0006421B0FBF1F000F00700504421685F
:104C700088606AE004206168A0FB015003461920A7
:104C8000A9FB007001462A463846FBF70DFB824619
:104C900004206168A0FB015003461920A9FB0070A5
:104CA00001462A463846FBF7FFFA6421B0FBF1F0D3
:104CB00000EBC00101EB0010AAEB8000322101EBF8
:104CC00000106421B0FBF1F000F0F00A04206168EC
:104CD000A0FB017003461920A9FB00513A46284663
:104CE000FBF7E2FA6421B0FBF1F00AEB001A0420B2
:104CF0006168A0FB01510B461920A9FB00712A46EF
:104D00003846FBF7D1FA834604206168A0FB0150C6
:104D100003461920A9FB007001462A463846FBF7D6
:104D2000C3FA6421B0FBF1F000EBC00101EB00100D
:104D3000ABEB8000322101EB00106421B0FBF1F0FD
:104D400000F00F00504421688860BDE8F88F000033
:104D5000001001400014014077B581B004461546AB
:104D60000298A062A58500206064222084F8420099
:104D70002848E16BC8632848E16B08642748E16B69
:104D8000C8640020E16B086502AE32682368191D13
:104D90002B46E06BFCF7E6FC00BF0020009020688B
:104DA0000068009020684068009000BF00BF206944
:104DB00070B100BF00BF21680C3151E8001F41F401
:104DC000807021680C3141E80002002AF3D100BF55
:104DD00000BF00BF2168143151E8001F41F00100FD
:104DE0002168143141E80002002AF3D100BF00BF5E
:104DF00000BF2168143151E8001F41F040002168D4
:104E0000143141E80002002AF3D100BF002004B0B1
:104E100070BD000041480008F5480008F14700084F
:104E2000014691F84100212828D18868B0F5805FBB
:104E30000BD1086948B90A6A1088C0F308000B68EA
:104E40005860086A801C086205E00B6A581C0862FA
:104E500018780B685860C88C401E80B2C88458B956
:104E60000868C06820F080000B68D8600868C068D7
:104E700040F040000B68D860002070470220FCE73B
:104E800000BFFEE700BF0E48007801280CD1FEF7F6
:104E900025FB00200A4908700A4801780A48FBF7F8
:104EA00051FA002007490870642207490748FEF7B5
:104EB00043FAFEF787FC142000F01AF9E3E700003C
:104EC0003D0000203C0000204C040020E4050020B0
:104ED00002480068C0F30220704700000CED00E0BB
:104EE00010B5002804DB0A07130E054A135406E028
:104EF0000A07140E034A00F00F031B1FD45410BD01
:104F000000E400E018ED00E002E008C8121F08C14C
:104F1000002AFAD170477047002001E001C1121F3A
:104F2000002AFBD1704730B50C0E15686B1C13605E
:104F30004455C1F3074415686B1C13604455C1F315
:104F4000072415686B1C1360445515686B1C1360AF
:104F5000415530BD10B52DED028B82B00446B0EE48
:104F6000408A0020019001AABDEEC80A10EE101A76
:104F70006846FFF7D8FF0199CAB244F44070694609
:104F800000F004F802B0BDEC028B10BD70B588B023
:104F900005460E461446082C00DD08240420039024
:104FA000029500200490059407AB324601A90548FC
:104FB000FBF7CBFB00BF0348FBF7C9FD0328FAD181
:104FC00008B070BD240300204A790B7942EA03221D
:104FD00012B200EE102AB8EEC00A80ED070ACA78B5
:104FE0008B7842EA032212B200EE102AB8EEC00A11
:104FF00080ED030A90ED040AB5EEC00AF1EE10FA56
:1050000014D190ED050AB5EEC00AF1EE10FA0DD1FB
:105010004A780B7842EA032212B200EE102AB8EE68
:10502000C00A80ED050A80ED040A0EE090ED050A45
:1050300080ED040A4A780B7842EA032212B200EEAD
:10504000102AB8EEC00A80ED050A7047FCF708FD8B
:10505000FFF792F9FFF7F4F9FEF7E6FCFEF7D2FD51
:10506000FEF726FEFEF782FEFEF784FC00F04CF809
:1050700000BFFEE701460020842901D0CA1C10446D
:105080007047000010B58AB00446002005900690D5
:10509000012007900020009001900290039004905E
:1050A0000E200990012008900F48844202D16946E1
:1050B000FBF7F0FB0E2005900020069001200790E2
:1050C00000200090019002900390012004900E2097
:1050D0000990012008900548844202D16946FBF7F7
:1050E000D9FB0AB010BD0000240300204C030020AF
:1050F00070B5044625460DB1294600E00121084659
:1051000000F036FC002070BD10B500F05FFC002000
:1051100010BD7FB504460D46606998B1A06988B19D
:10512000B4F90800FFF7A6FF0646D4E90510CDE95B
:10513000006102902B462269D4E9001000F054FF70
:10514000039013E0B4F90800FFF794FF064603A8A4
:10515000CDE90060238A9AB22B46D4E9001000F012
:1051600011FF012802D0002004B070BD0398FBE7B6
:105170002DE9F04105460E461C4807681C480068AA
:10518000001D00F0F1FA50B91948006890F82C1091
:105190000120884017490968814316480160681C4E
:1051A00038B936B112480168091D134800F026FBD2
:1051B0001AE07C190E4800684460BC4207D20C48D3
:1051C0000168091D0D48006800F0FEFA0CE008486F
:1051D0000168091D0A48006800F0F6FA09480068ED
:1051E000844201D207480460BDE8F08164000020D9
:1051F00050000020680000201809002058000020FE
:10520000540000208000002010B5044600F002FB8E
:1052100023480068401C224908602248006840B9C1
:10522000204804600846006801280DD100F03EF9CE
:105230000AE01D48006838B91A480068C06AE16A87
:10524000884201D81748046018480068401C174974
:10525000086094F82C10012088401549096808431B
:1052600013490860E16A01EB8101124A02EB8100F7
:10527000211D00F0C3FA00F0F7FA0B48006868B18E
:1052800008480068C06AE16A884207D24FF080503F
:1052900009490860BFF34F8FBFF36F8F10BD000047
:1052A00060000020500000206C0000207C000020E6
:1052B000680000203C08002004ED00E010B516E076
:1052C00000F0A8FA0C48C068C468201D00F04CFA31
:1052D0000A480068401E0949086009480068401EE5
:1052E0000749086000F0C0FA204600F00BF80448B7
:1052F00000680028E4D110BD0409002060000020EF
:105300005C00002010B5044694F8510030B9206BC1
:1053100000F0C8FA204600F0C5FA1AE094F85100EF
:10532000012803D1204600F0BDFA12E094F85100A4
:10533000022801D1012000E0002050B900BF502018
:1053400080F31188BFF34F8FBFF36F8F00BF00BF93
:10535000FEE710BD30B54FF47053174800F0070456
:105360002CB1C01D20F00700134C041B1B1B024670
:10537000124C22600024114D6C60D018083820F0C7
:1053800007000F4C206000240D4D2D686C600C4D03
:105390002D682C601146441A4C60094C24680C603E
:1053A000084D4C682C60084D4C682C604FF0004450
:1053B000064D2C6030BD00002C0900208C00002020
:1053C000940000209C00002098000020A8000020ED
:1053D00000BFFFF773FF064800680128F9D94FF0B6
:1053E000805004490860BFF34F8FBFF36F8FF0E721
:1053F0003C08002004ED00E02DE9FF5F81460E46E9
:105400009246DDE90E7B109CAAF10100216B01EBB5
:10541000800828F0070808F0070008B9012000E01C
:10542000002050B900BF502080F31188BFF34F8F88
:10543000BFF36F8F00BF00BFFEE786B1002507E016
:10544000715D04F134004155705D00B902E06D1CDE
:10545000102DF5D300BF00214320015502E00020AC
:1054600084F83400072F00D30627E7626764002022
:10547000A064201D00F0A5F904F1180000F0A1F9C6
:105480002461C7F10700A06164620020E06484F831
:10549000500049464046039A00F050F92060BBF1A5
:1054A000000F01D0CBF80040BDE8FF9F10B50024ED
:1054B00007E004EB84010F4A02EB810000F074F96D
:1054C000641C072CF5D30C4800F06EF90B4800F073
:1054D0006BF90B4800F068F90A4800F065F90A48D2
:1054E00000F062F904480949086004480849086066
:1054F00010BD00003C080020C8080020DC08002087
:10550000F0080020040900201809002054000020A1
:105510005800002010B50146164800E000680368F6
:105520008B42FBD30246436813448B4204D1436849
:105530004C682344436001460A464B6813440468A0
:10554000A34211D10C4C03682468A34208D04B68D5
:105550000468646823444B6003681B680B6005E0C3
:10556000054B1B680B6001E003680B60884200D0AC
:10557000016010BD8C000020940000200A490968D9
:10558000096809B9012100E0002121B14FF0FF3184
:10559000064A116006E004490968C968C868034AF8
:1055A0004168116070470000540000208000002016
:1055B0000E480068401C08B9012000E0002050B9E6
:1055C00000BF502080F31188BFF34F8FBFF36F8F60
:1055D00000BF00BFFEE700BF502080F31188BFF37B
:1055E0004F8FBFF36F8F00BF00BFFEE7AC000020FE
:1055F0002DE9F04104464FF0000800F03FFA494819
:10560000006808B9FFF7A6FE474800682040002858
:1056100070D1D4B1083404F00700B0B104F0070031
:10562000C0F10800044404F0070008B9012000E0BC
:10563000002050B900BF502080F31188BFF34F8F76
:10564000BFF36F8F00BF00BFFEE7002C52D037487A
:10565000006884424ED8364E3046056801E02E463A
:105660002D686868A04202D228680028F7D12D482A
:10567000006885423ED0306800F108082868306034
:105680006868001B102819D92F1907F0070008B9FE
:10569000012000E0002050B900BF502080F31188A5
:1056A000BFF34F8FBFF36F8F00BF00BFFEE7686887
:1056B000001B78606C603846FFF72CFF1B49686858
:1056C0000968081A194908600846006819490968F4
:1056D000884203D215480068164908601249686874
:1056E0000968084368600020286013480068401C6F
:1056F0001149086000F07AFD08F0070008B90120A0
:1057000000E0002050B900BF502080F31188BFF3A3
:105710004F8FBFF36F8F00BF00BFFEE74046BDE86D
:10572000F081000094000020A800002098000020D4
:105730008C0000209C000020A0000020001F4FF0E3
:1057400080730360001F21F001030360001F054BFD
:10575000036014380260001F6FF0020303602038FA
:1057600070470000B155000801460A69D1E90130CF
:105770009860D1E9010358605068884201D1886877
:105780005060002008611068401E1060106870476B
:10579000034B0360034B0B608023136070470000D2
:1057A000D00000202401002000F1080141604FF0EA
:1057B000FF31816000F10801C160016100210160D9
:1057C000704700210161704710B502460B685C1CF0
:1057D0000CB9106907E002F1080000E04068446875
:1057E00024689C42FAD944684C604C68A160886087
:1057F00041600A611468641C146010BD42684A600C
:1058000093688B60936859609160086103685B1CC2
:105810000360704700BF502080F31188BFF34F8FA3
:10582000BFF36F8F00BF0E480068401C0C49086032
:1058300008460068012812D10A480068C0B208B9B9
:10584000012000E0002050B900BF502080F31188F3
:10585000BFF34F8FBFF36F8F00BF00BFFEE77047EE
:10586000AC00002004ED00E00D48006850B900BF16
:10587000502080F31188BFF34F8FBFF36F8F00BFAD
:1058800000BFFEE706480068401E0549086008465C
:10589000006820B9002080F3118800BF00BF704766
:1058A000AC00002070B506463546002E44D0083DB9
:1058B0002C46224960680968084008B1012000E0D0
:1058C000002050B900BF502080F31188BFF34F8FE4
:1058D000BFF36F8F00BF00BFFEE7206808B901204B
:1058E00000E0002050B900BF502080F31188BFF3C2
:1058F0004F8FBFF36F8F00BF00BFFEE70F49606897
:1059000009680840C0B12068B0B90C4960680968EE
:105910008843606000F0B2F809496068096808448B
:10592000074908602046FFF7F5FD06480068401C5F
:105930000449086000F05AFC70BD0000A800002077
:1059400098000020A400002000204FF0E021086112
:105950008861064800684FF47A71B0FBF1F0401E90
:105960004FF0E02148610720086170474C0000209B
:1059700070B504460025D4B11248006808B901206A
:1059800000E0002050B900BF502080F31188BFF321
:105990004F8FBFF36F8F00BF00BFFEE700F06EF8C0
:1059A00000212046FFF7E4FB00F020FC05463DB94E
:1059B0004FF0805004490860BFF34F8FBFF36F8FE3
:1059C00070BD00008800002004ED00E010B586B036
:1059D00000200590049003AA04A905A8FFF7D8FEAB
:1059E0000022DDE904101346CDE9002102901CA13C
:1059F0001D48039A00F0F8FA1C4908600846006840
:105A000008B1012400E00024012C15D100BF502072
:105A100080F31188BFF34F8FBFF36F8F00BF4FF03C
:105A2000FF30134908600120124908600020124924
:105A3000086000F0F3F910E0601C08B1012000E0FC
:105A4000002050B900BF502080F31188BFF34F8F62
:105A5000BFF36F8F00BF00BFFEE706B010BD0000B0
:105A600049444C4500000000D15300088400002048
:105A7000800000206C0000206400002002480068C4
:105A8000401C014908607047880000201D480068DC
:105A900018B101201C49086032E000201A49086052
:105AA0001A480068B0FA80F0C0F11F0101EB8100D4
:105AB000174A52F8200008B1012000E0002050B938
:105AC00000BF502080F31188BFF34F8FBFF36F8F5B
:105AD00000BF00BFFEE701EB81020D4B03EB82002C
